:020000040800F2
:10000000302901209D010008E1FB00084DB80008DF
:1000100021EF00086D3A0008219701080000000058
:100020000000000000000000000000003161010835
:10003000014B000800000000F1230108F9640108E9
:10004000B7010008B7010008B7010008B7010008B0
:10005000B7010008B7010008054B0008B701000808
:10006000394B0008B70100084D4B00081546000841
:10007000B701000821460008B70100082D46000816
:100080003946000845460008B7010008B7010008D6
:10009000713A00087D3A0008B7010008614B00087A
:1000A000B7010008B7010008B7010008B701000850
:1000B000F5650108B7010008B7010008B70100089D
:1000C000B7010008B7010008B70100082D6001085A
:1000D000B70100082571010841710108B701000846
:1000E000194B0008B7010008B7010008B701000864
:1000F000B7010008B7010008B70100085146000821
:10010000B7010008413C0108B7010008B701000829
:10011000D96C0108B701000801660108B7010008A1
:100120005D460008694600087546000881460008DB
:100130008D4600080000000000000000B701000824
:10014000893A0008953A0008B7010008C51E010861
:1001500099460008A5460008B70100085D7101082E
:10016000B7010008B7010008B7010008B70100088F
:10017000B7010008B70100080000000000000000FF
:10018000B7010008B7010008DFF80CD000F04EFFFF
:100190000048004755D7010830290120064880470C
:1001A00006480047FEE7FEE7FEE7FEE7FEE7FEE75C
:1001B000FEE7FEE7FEE7FEE7E165010889010008CA
:1001C0002DE9F05F0546002092469B46884606468C
:1001D000814640241BE0284641464746224600F01F
:1001E000A1FD53465A46C01A914110D311461846F4
:1001F000224600F088FD2D1A67EB01084F46224683
:100200000120002100F07FFD17EB00094E41201E68
:10021000A4F10104DFDC484631462A464346BDE8E6
:10022000F09F10B5431A934209D28318881803E04F
:1002300010F8011D03F8011D521EF9D210BD40EA4D
:1002400001039B0703D009E008C9121F08C0042A54
:10025000FAD203E011F8013B00F8013B521EF9D23B
:1002600010BDD2B201E000F8012B491EFBD270474D
:100270000022F6E710B513460A4604461946FFF772
:10028000F0FF204610BD10B5044604E00B7800F8DE
:10029000013B03B1491C521EF8D2204610BDCAB220
:1002A000401E10F8011F8A4202D00029F9D1002017
:1002B0007047421C10F8011B0029FBD1801A7047BF
:1002C00010B5002200E0521C835C8C5CA34201D17B
:1002D000002BF8D1D8B2E1B2401A10BD30B50446B7
:1002E0000020034600E05B1C934203D2E05CCD5C3F
:1002F000401BF8D030BD10B5044600E0401C037828
:10030000002BFBD100E0401C521E04D311F8013B2E
:100310000370002BF7D100210170204610BD034669
:1003200011F8012B00F8012B002AF9D1184670476B
:1003300030B505460020034600E05B1C934205D221
:10034000EC5CC85C201A01D1002CF6D130BD000055
:1003500070B50F4D00B92868002412E00A4602E08B
:100360009E4203D0521C1378002BF9D1DAB22243FB
:1003700005D02BB124B1002100F8011B04E0044694
:10038000401C0678002EE9D12860204670BD000090
:100390000000002010B54843044622F0DDFD00288F
:1003A00005D00021002C02D0641E0155FAE710BDD3
:1003B0000FB400B58DB010A909900B9000914FF0CB
:1003C000FF300A9000200C900548069005480790E1
:1003D0006A4609A80F9900F0DBFC0DB05DF814FB2C
:1003E000AD0D0008CB0D00082DE9FF4F1C4681B074
:1003F0000021D4E9016791464FF0FF358A468846CF
:10040000A1696D1C02988847216A834688470028A5
:10041000F6D1BBF1FF3F0CD026F4C066002F1ADDE9
:10042000700615D5BBF12B0F0AD0BBF12D0F0FD1E4
:1004300004E04FF0FF3005B0BDE8F08F46F4806671
:10044000A1696D1C029888477F1E8346002F02DD3C
:10045000BBF1300F03D0B9F1000F2AD025E0A1691C
:100460006D1C46F400767F1E029888478346002F55
:1004700005DDBBF1780F06D0BBF1580F03D0B9F101
:10048000000F10D011E0B9F1000F02D0B9F1100F38
:100490000BD1A1696D1C26F400767F1E0298884757
:1004A0008346102000E0082081464FEAE970009062
:1004B00017E00A20F8E74346AAFB092803FB098056
:1004C000DDF800C07F1E0AFB0C0112EB0B0A41EBAA
:1004D000EB78A16946F4007605F10105029888479A
:1004E0008346002F06DD4946584600F03DFC5FEA92
:1004F000000BE0D5E16902988847B00502D46FF09F
:10050000010098E7F00718D1700610D57005514624
:1005100005D50023D1EB030163EB080200E042465E
:100520002068031D23600068C0E9001205E0206810
:10053000011D21600068C0E900A828467BE7000093
:100540002DE9FF4F087883B09946FF2805D0491C54
:100550002D2804D00024002008E000200BE0012416
:10056000F9E700EB800003EB4000491C0B78FF2B00
:10057000F7D104B1404200230293147819461D4676
:100580002D2C01D02B2C04D1521C2D2C13D0002447
:100590000294AA461478FF2C0FD00A25A3FB0578F5
:1005A00001FB05814FF0000C03FB0C11521CE319F9
:1005B0004AEB0101EEE70124EAE7814453EA010036
:1005C00002D019F5C87F06DA03980021C0E90011AE
:1005D00007B0BDE8F08F0025AE4E2F46DFF8B88299
:1005E000184600F0E6FCCDE90001B9F1000002DA9E
:1005F000C9F1000400E004460023A74A1AEB030BEC
:1006000042EB045A12E0E00707D02A463346384648
:10061000414600F0F9F9074688462A463346104617
:10062000194600F0F1F905460E466410002CEAD197
:10063000DDE90001B9F1000F5A46534606DA00F031
:1006400055FA3A46434600F051FA05E000F0DCF96D
:100650003A46434600F0D8F9029A0AB181F00041C7
:10066000039AC2E90001B3E72DE9FF4F1F468DB0A1
:10067000D7E901464FF0FF382E2045464FF00009DC
:100680000B90B9696D1C0E988847396A8246884775
:100690000028F6D1BAF1FF3F0AD024F4D064002E2E
:1006A00011DDBAF12B0F08D0BAF12D0F0BD102E0FA
:1006B000404611B08DE744F48064B9696D1C0E9812
:1006C00088478246761E6946600501D52D2000E0E8
:1006D0002B208DF8000001F1010B0DF1200809E03D
:1006E000B9696D1C0E98884782460F9844F40074CF
:1006F000761E0560002E02DDBAF1300FF0D00B99A6
:100700008A453ED144F0800406E00F99681CA9F1A7
:10071000010944F400740860B9696D1C761E0E98D6
:10072000884782463028F0D02BE00B998A4505D1C6
:10073000200603D444F08004761E18E0504622F0D0
:100740007DFD08B30DF11302761EAAF1300044F4CA
:100750000074934506D20BF8010B200607D5A9F1CA
:10076000010003E0200602D409F101008146A00542
:1007700002D50F99681C0860B9696D1C0E988847EE
:100780008246002ED1DC53E0002E51DDBAF1650F18
:1007900002D0BAF1450F4BD1A00549D5B9696D1CFE
:1007A00024F44074761E0E9888478246002E0CDD95
:1007B0002B2804D0BAF12D0F07D144F48074B96905
:1007C0006D1C0E9888478246761EE00501D52D21C6
:1007D00000E02B2108F8011BCDF82C8021E00DF161
:1007E0002901761E44F4007488450CD2AAF1300029
:1007F00010F0FF0088F8000002D10B99884509D954
:1008000008F1010806E0E00501D5244801E042F2C4
:100810000F708146B9696D1C0E98884782460F9803
:100820000560002E04DD504622F008FD0028D6D1D8
:10083000F9690E988847FF208BF8000088F80000BF
:100840000020069007904B466A4608A906A8FFF7C5
:1008500077FEA00502D46FF001002AE714F0240F00
:100860000AD0E00714D1DDE906123868031D3B60A9
:100870000068C0E900120BE0DDE9060100F011FAA2
:100880000146E00704D13868021D3A600068016043
:1008900028460EE7000014400000F03FF1D8FFFFAB
:1008A00070B5064620F0E4FE046805460A220021E1
:1008B000304600F09BFA2C6070BD2DE9FE4F80465B
:1008C00081EA0300C00F0C46009021F0004123F0A4
:1008D0000045B8EB0200A94105D2404621469046AA
:1008E0001C460B46024623F00040104347D0270D1C
:1008F000C7F30A00C3F30A510290401A019040283E
:100900006BDAC3F3130040F4801B0098924620B1C9
:100910000023D2EB030A63EB0B0B01985946C0F19D
:100920004002504600F0EFF906460D465046594643
:10093000019A00F007FA10EB08006141002487EAF1
:10094000115284EAE7731A4340D0009A62B3019AC5
:10095000012A4FEA075215DC001B61EB02014FF040
:10096000004202EA0752CDE90042001C41F5801125
:1009700032462B4600F0B8FA03B0BDE8F08F40468F
:100980002146F9E7001B61EB0201001C41F58013D1
:1009900000185B412018A2F5001747EB030140EA5D
:1009A000D570B6196D4111E06D084FEA360645EA7B
:1009B000C0754FEA0752001B61EB0201001C41F5B4
:1009C000801149084FEA30000019514132462B4648
:1009D00003B0BDE8F04F00F078BA00980122400063
:1009E0000023D0EB020263EBE073009821464FEA4C
:1009F000E074B8EB000061EB0401E9E783F0004329
:100A00005BE781F0004158E72DE9FE4F81EA0304DE
:100A100004F0004421F0004100944FF0000B23F05B
:100A2000004350EA01045ED052EA03045BD0C3F3F2
:100A30000A54C1F30A552C44A4F2F3340194A0FBE8
:100A40000254C1F3130141F48011C3F3130343F4BF
:100A5000801301FB024400FB034E840A970A44EA18
:100A6000815447EA8357A4FB076802958D0A05FB6A
:100A700007854FEA932C04FB0C542705029D4FEA8F
:100A8000065847EA1637B5EB08056EEB070C870EDC
:100A9000920E47EA811742EA8312A7FB0201B6EBE6
:100AA0000B0164EB00042B0D43EA0C335E1844EB9E
:100AB0001C50DA465146E7FB0201C5F313044FEA26
:100AC0000B3343EA14534FEA0432019C43EA060312
:100AD000A4F10C040294009CCDE900B400F004FAE7
:100AE00003B0BDE8F08F00200146F9E72DE9F04D95
:100AF00081EA030404F0004B21F0004514464FF056
:100B0000000A23F0004150EA050220D054EA010215
:100B10001DD0C5F30A570246C5F31303C1F31300F2
:100B2000C1F30A5640F4801543F48013A7EB06087E
:100B3000101BD64608F2FD3873EB050002D308F10E
:100B4000010801E092185B41B8F1000F03DA0020C0
:100B50000146BDE8F08D00204FF480110646844622
:100B60000EE0171B73EB050705D3121B63EB0503A0
:100B700006434CEA010C49084FEA300092185B41E9
:100B800050EA0107EDD152EA030012D082EA0400D4
:100B900083EA0501084305D0101BAB4106D20122B0
:100BA000002306E000224FF0004302E06FF0010254
:100BB00053101AEB06004CEB085110EB0A0041EB06
:100BC0000B01BDE8F04D00F080B930B5041E71F1A5
:100BD000000404DB4FF00044404264EB0101141EAA
:100BE00073F1000405DB1C464FF00043524263EBF7
:100BF000040342404B401A4301D0002030BD012085
:100C000030BD0EB5C10F80EAE0700844CA0700216C
:100C100040F233438DE80E000A460B4600F064F9BB
:100C200003B000BD0EB540F2334102910021CDE981
:100C300000110A460B4600F057F903B000BD70B52D
:100C4000C1F30A5201F000450024C1F3130140F240
:100C5000FF3341F480119A4201DA002070BD40F266
:100C600033439A42A2F2334203DC524200F05AF874
:100C700000E090402C43F1D0404270BD00F00042B3
:100C800030F000400AD0C10D01F56071C0F31600CC
:100C900042EA0151C2084007114370470020014653
:100CA000704701F0004330B421F0004150EA0102E6
:100CB00006D00A0DA2F56072C1F31301002A02DC0E
:100CC00030BC00207047440F44EAC104C100E01862
:100CD00030BC00EBC25000F0C1B830B50B46014645
:100CE00000202022012409E021FA02F59D4205D3CB
:100CF00003FA02F5491B04FA02F52844151EA2F175
:100D00000102F1DC30BD202A04DB203A00FA02F1B6
:100D1000002070479140C2F1200320FA03F31943E9
:100D200090407047202A04DB203A21FA02F000218B
:100D3000704721FA02F3D040C2F1200291400843EB
:100D400019467047202A06DBCB17203A41FA02F0F9
:100D500043EAE07306E041FA02F3D040C2F1200218
:100D600091400843194670473A2800D2303820F0A5
:100D70002002412A01D3A2F13700884201D34FF06B
:100D8000FF307047026811441378016018467047BD
:100D9000D160044951610449116200211161114679
:100DA00000F064B9850D000859100008426842B18E
:100DB000016811F8013B23B1521EC0E90012184628
:100DC00070470121C160881E704742685AB1C368EC
:100DD000016843B983688B4205D0491E521CC0E9A3
:100DE0000012002070474FF0FF3070472DE9F047A8
:100DF00091460F4680460446002614F8015B2DB14B
:100E000000F026F90068405DC007F6D12B2D02D016
:100E10002D2D18D0641E4A463946204600F0BCFAF3
:100E200027B13968A14201D1C7F8008071054FF0A0
:100E300002040BD54042002803DD20F019FC0460B9
:100E4000A007BDE8F08746F48066E4E70028F8DAFA
:100E500020F00EFC04606FF00040F2E70029A8BF0C
:100E60007047401C490008BF20F00100704710B4D3
:100E7000B0FA80FC00FA0CF050EA010404BF10BC88
:100E8000704749B1CCF1200421FA04F411FA0CF1B5
:100E900018BF012121430843A3EB0C01CB1D4FEAEE
:100EA00000614FEA102042BF002010BC704700EBE9
:100EB000C35010440029A4BF10BC7047401C490017
:100EC00008BF20F0010010BC704710B5141E73F16C
:100ED000000408DA401C41F1000192185B411A43FA
:100EE00001D120F0010010BD2DE9F04D92469B4646
:100EF00011B1B1FA81F202E0B0FA80F220329046EC
:100F0000FFF701FF04460F4640EA0A0041EA0B01E1
:100F100053465A46084313D0114653EA010019D0EC
:100F2000C8F140025046FFF7FDFE05460E4650460A
:100F300059464246FFF7E7FE084305D0012004E08A
:100F400020463946BDE8F08D0020054346EAE076AC
:100F50002C4337430A986305E40AA0EB08000022FB
:100F6000FD0A44EA47540A3002D500200146E9E769
:100F7000010510196941DDE9084500196941BDE81D
:100F8000F04DA2E770B521F0004303430CD0C1F34C
:100F90000A550024D5EB040564EB0403D617AD1AFB
:100FA000B34102DB0020014670BD201841EB025125
:100FB00070BD0EB540F2334202920022CDE900220C
:100FC0001346FFF791FF03B000BDC1F30A52C1F30E
:100FD000130140F2FF3341F480119A4202DA0020FB
:100FE0000146704740F233439A42A2F2334202DC98
:100FF0005242FFF797BEFFF786BE000030B5041ED1
:1010000071F1000404DB4FF00044404264EB010145
:10101000141E73F1000405DB1C464FF000435242DE
:1010200063EB0403994208BF904230BD064C074D64
:1010300006E0E06840F0010394E8070098471034A8
:10104000AC42F6D3FFF7A4F82CF102084CF10208E9
:1010500000487047043D020810B50446FFF7F8FF4A
:101060000068005D00F0010010BD00002DE9F34FA5
:101070008BB04FF0000801F10C000C464FF0010B53
:1010800046460DF1080A01906269012101989047D6
:10109000051E2DD0252D2CD0216A8847C0B162694C
:1010A000012101989047216A88470028F7D1411E05
:1010B00062690198904700E0761CA1690B98884707
:1010C000216A88470028F7D1E1690B988847DBE758
:1010D000A1690B9888470746A84201D1761CD3E73F
:1010E000E1690B9888477F1C02D1B8F1000F6FD0DF
:1010F00046E1002762693D463946019890472A2813
:1011000004D162690121019890470125DFF884929A
:101110006269012101989047A0F130010A290AD2A1
:101120004F45E5DC07EB870100EB4107303FDFD49B
:1011300045F01005ECE7E90601D46FF000476C2894
:101140000AD04C2814D0682815D06A280DD07428ED
:101150001CD07A281AD01DE06269012101989047BD
:101160006C2802D045F0040514E045F002050DE0BE
:1011700045F020050AE0626901210198904768283E
:1011800002D045F0080505E045F4006562690121DB
:1011900001989047C4E9015765283DD019DC5828CB
:1011A0007AD00CDC452837D004DC252826D041280D
:1011B00031D131E046282FD047282CD12CE05B28B4
:1011C00077D0612828D063287CD0642823D15AE0C6
:1011D000D0E06F2848D008DC66281DD067281BD0D7
:1011E000692821D06E2816D127E0702845D07328B1
:1011F00068D0752847D078280DD14DE0A1690B98AB
:101200008847054625283FF469AFE1690B98884770
:101210006D1C3FF46AAFB3E023466A466FF00100ED
:101220000B99FFF721FA9EE045F040006060A807A7
:1012300023464FF0000236D43EE0E8077FF447AF84
:101240002068011D21600068290501D506701BE793
:10125000290701D5068017E7A90703D5F117C0E9CB
:10126000006111E706600FE745F040006060A807E5
:1012700023464FF0080216D41EE040F60E0125EA80
:101280000100606016E045F040006060A80723465A
:101290004FF00A0207D40FE045F040006060A80755
:1012A00008D5234610226FF001000B99FFF79CF838
:1012B00059E007E0234610226FF001000B99AFF3CD
:1012C000008050E04FF000094F464B46632802D0A3
:1012D0005B2806D040E0E80601D40120A060012789
:1012E0003AE062690121019890475E2805D14FF0EC
:1012F00001096269494601989047216939B900217D
:101300000A46534643F82120491C0829FADBB0B3AA
:10131000216969B9C11700EBD16253110AEB83014E
:1013200022F01F02821A01200B68904003430B60D9
:1013300062690121019890475D28E8D1B9F1000F59
:1013400009D00020514651F82020D24341F82020F6
:10135000401C0828F7DB02AB224600976FF0010023
:101360000B99AFF3008000280CDA401C08D1BBF1C8
:10137000000F05D04FF0FF300DB0BDE8F08FFFE754
:101380004046F9E7E90701D108F1010806444FF0AA
:10139000000B79E6CCCCCC0C2DE9F05F82460078CE
:1013A000002715468B460AF10104B946302801D0C2
:1013B0009DB113E014F8010B0127782803D05828B9
:1013C00001D045B10AE00DB1102D07D1002710253D
:1013D00014F8010B02E0082500E00A250026B046BB
:1013E0000EE005FB080005FB06F1012701EB1046A6
:1013F0001FFA80F8B6F5803F00D3B94614F8010B08
:101400002946FFF7B1FC0028EBDABBF1000F05D04D
:101410000FB1641E00E05446CBF80040B9F1000F54
:1014200006D020F025F902210160C81EBDE8F09F1A
:1014300048EA0640FAE72DE9F04D00231A461B1A48
:101440008A4103DB00200146BDE8F08DC1F30A525A
:10145000C1F3130141F480154FF0000BD10702D105
:1014600000186D41521E0027044640F2FF11384615
:1014700001EB620A3E468046024600204FF480118E
:10148000FFF750FCC2197141BB1846EB0100B4EBE9
:10149000030C75EB000C04D3E41A65EB000517464A
:1014A0000E46241908F101006D4180463428E3DD21
:1014B000F91946EB0600091BA84103D24FF0FF3291
:1014C000134601E0002213461BEB070046EB0A51CE
:1014D000BDE8F04DFFF7F9BC70B58C1810F8015B52
:1014E00015F0070301D110F8013B2A1106D110F8BD
:1014F000012B03E010F8016B01F8016B5B1EF9D1C1
:101500002B0705D40023521E0DD401F8013BFAE746
:1015100010F8013BCB1A921C03E013F8015B01F8B1
:10152000015B521EF9D5A142D8D3002070BD000046
:101530000146806B036C026C13F0500F08D0D2068A
:1015400048BF04F045B8806BC26C0846104700BF26
:1015500042F40071016401688A6812F0405F01D0B2
:1015600004F032B8027E002AFAD1CA6A12F4700F6F
:1015700002D08A685205F3D44A6822F020024A60F9
:10158000016C21F480710164016CC90448BF04F04E
:101590001BB8016C41F00101016404F015B80000B2
:1015A000806B40210164416C41F00401416404F00E
:1015B0000FB80000806B04F009B800002DE9F04777
:1015C0002DED048B40F24C65C2F200058A46297865
:1015D000B0EE608AB0EE409A81469846174659B1FF
:1015E0006868042202EB810122F000FA10B306467B
:1015F0002878441C05E000BF042021F0ADFC06461D
:10160000012438206E602C7021F0A6FC0546E0B263
:1016100006EB800040F8045C65B10C98294641F85F
:10162000087F0122C1E90102504603F029FF38B1C9
:1016300003F0A0FA4FF0FF30BDEC048BBDE8F0875B
:101640004846FEF736FE064621F086FC2860A8B123
:1016500049463246FEF7E5FD05F12800B0EE480A9E
:10166000C5F804A085ED069A85F8348003F0CCFA1D
:101670000020BDEC048BBDE8F08700BF6FF00300D5
:10168000BDEC048BBDE8F0872DE9F0412DED028B18
:1016900040F24C61C2F200010E789FED118A86B1D2
:1016A0004F688046FEF705FE054600BF3C68414690
:1016B00020682A46FEF73CFE50B1013E07F10407C0
:1016C000F4D1B0EE480ABDEC028BBDE8F08100BF5A
:1016D00094ED098AB0EE480ABDEC028BBDE8F081BA
:1016E0000000000070B52DED048B82B045F220445F
:1016F0009FED5D8A9FED5D9A0120C2F2000400908B
:1017000056A0214610220223B0EE480AF0EE490A04
:101710000226FFF753FF054655A02146112200235C
:10172000B0EE480AF0EE490A0096FFF747FF05447D
:10173000032651A0214612220023B0EE480AF0EE03
:10174000490A0096FFF73AFFC5421BD140F24C65AB
:10175000C2F200052C78A00021F0FEFB014645F204
:101760002040C2F20000224604F02AF82A787AB11A
:10177000D5F804C0501E032802F003000ED2002248
:1017800040E000BF4FF0FF3002B0BDEC048B70BDF5
:101790006FF0020002B0BDEC048B70BD02F0FC03E0
:1017A0000CF10805002200BF55F8084C04326168AE
:1017B000896B0968CE68002E14BFC9680021E161F9
:1017C00055F8044C6168896B0968CE68002E14BF17
:1017D000C9680021E1612C686168896B0968CE687D
:1017E000002E14BFC9680021E1616C681035616882
:1017F000896B0968CE68002E14BFC9680021934226
:10180000E161D1D120B35CF822305968896B096855
:10181000CE68002E14BFCD6800250128DD6117D0E9
:101820000CEB82014A6853689B6B1B68DE68002ED4
:1018300014BFDB6800230228D36109D0886841689F
:10184000896B0968CA68002A14BFC9680021C16190
:10185000002002B0BDEC048B70BD00BF54454D505C
:1018600053454E534F5200003333533ACDCCCC3D09
:1018700056524546494E54005642617400000000DD
:1018800070B52DED088B40F24C64C2F20004207854
:10189000002845D09FED288A9FED289A0025B3EEB9
:1018A00009AAB6EE00BA17E096ED061A20EE010A74
:1018B00030EE080A80EE090A30EE0A0A06F1280026
:1018C00006F12C0186ED080A03F080F92078013535
:1018D000854286ED090A1FD2606850F82560F068DD
:1018E000F16901EB800196F8340011ED010A02283C
:1018F000B8EE400AD8D0012806D0B8B996ED061A3D
:1019000021EE000ADAE700BF96ED061A21EE000A82
:1019100020EE0B0AD2E700BF0020BDEC088B70BDA3
:101920006FF00500BDEC088B70BD00BF6FF00400C8
:10193000BDEC088B70BD00BF3D0AB7BF9A998940C6
:101940002DE9F04383B040F66405C2F2000504209F
:101950004FF00008287005F17000CDE9008802F012
:1019600029FF40F28009C2F20009D9F8000085ED94
:101970001B0A03F05BFB40F2B406C2F200063068BB
:10198000922114F05FFD3068922114F05BFD306805
:101990006C462146062214F031FDD9F8000003F010
:1019A00057FB9DF801109DF80000090209B29DF84F
:1019B0000330084400EE100A95ED181A9DF8022035
:1019C000B8EEC00A95ED142A180221EE000A00B202
:1019D00022EE000A104485ED010A00EE100A9DF87F
:1019E0000500B8EEC00A00029DF8041021EE000ABE
:1019F00000B222EE000A084485ED020A00EE100A49
:101A000040F29807B8EEC00AC2F2000721EE000AC1
:101A1000386822EE000A85ED030A03F007FB306800
:101A2000802114F00FFD30682146082214F0E6FCF6
:101A3000386803F00DFB9DF800000F285ED19DF87B
:101A400003109DF80220090209B295F85C001144C8
:101A500001EE101A95ED190AB8EEC11A60B39DF89F
:101A6000051095ED0D2A9DF80400090221EE001ADB
:101A700009B231EE421A9DF80730084485ED051A87
:101A800001EE100A95ED0E3A9DF80620B8EEC11A47
:101A9000180221EE001A00B231EE431A104485ED0F
:101AA000061A01EE100A95ED0F4AB8EEC11A21EEA2
:101AB000000A30EE440A1FE09DF805109DF804006E
:101AC00009029DF8073009B220EE011A084485ED9D
:101AD000051A9DF8062001EE100A1802B8EEC11A88
:101AE00000B220EE011A104485ED061A01EE100A2C
:101AF000B8EEC11A20EE010A85ED040AD9F80000FB
:101B000003F094FA3068A22114F09CFC3068A22102
:101B100014F098FC30686946022214F06FFCD9F882
:101B2000000003F095FA9DF800009DF80110C00038
:101B300040EA51114FF60002CFF6FF72B8EB902F3A
:101B400018BF114300EE101AB8EEC00AB4EE001A26
:101B500020EE010AB3EE071A30EE010A012085EDEE
:101B6000160A287003B0BDE8F083000040F6640058
:101B7000C2F200007047000010B52DED068B86B054
:101B80000020C0F60C0002A9042203F041F80298DC
:101B900001AC21461DF0EAF920461AF05BFC0398DF
:101BA0002146B0EE408A1DF0E1F920461AF052FCC1
:101BB00004982146B0EE409A1DF0D8F920461AF05C
:101BC00049FC05982146B0EE40AA1DF0CFF9204609
:101BD0001AF040FC9FED261A40F66400B4EE418AEC
:101BE000F1EE10FAC2F200002ADCB4EE419AF1EEF6
:101BF00010FA25DCB4EE41AAF1EE10FA20DCB2EEC8
:101C0000061AB4EE410AF1EE10FA19DCB2EE031A2C
:101C1000B4EE410AF1EE10FA12DB9FED161A80EDD8
:101C20000D8A81EE001A80ED0E9A80ED0FAA80EDEC
:101C3000130A80ED141A06B0BDEC068B10BD00BF70
:101C400043F6AC0141F2B062C3F62231C3F6CE12C4
:101C5000C0E90D1241F23F619FED071AC4F21B115A
:101C6000C263C16480ED141A06B0BDEC068B10BDD2
:101C70008FC2753CC3F51C41C48B813F2DE9F04FE9
:101C800081B02DED048B86B040F66408C2F20008E6
:101C9000012088F85C0088F8680043F233304AF28B
:101CA000580240F28005C3F6EB20C3F68B22C2F245
:101CB0000005C8E9180228680021C8F85810C8E9CA
:101CC0000111C8E90311C8E90511C8E91B11ADF8F4
:101CD0001410049103F0AAF940F2B407C2F200070D
:101CE0003868802114F0AEFB3868552114F0AAFB47
:101CF0003868552114F0A6FB286803F0A9F9B0EE66
:101D0000008AB0EE480A02F011FD286803F08EF94F
:101D10003868802114F096FB3868552114F092FB46
:101D20003868552114F08EFB286803F091F9B0EE65
:101D3000480A02F0FBFC286803F078F938687E2135
:101D400014F080FB3868B62114F07CFB286803F09F
:101D50007FF99FED1B0A02F0E9FC286803F066F9A1
:101D60003868802114F06EFB3868552114F06AFB46
:101D70003868552114F066FB286803F069F9B0EE65
:101D8000480A02F0D3FC286803F050F93868802133
:101D900014F058FB3868552114F054FB386855216D
:101DA00014F050FB29680446084603F051F9B0EEE0
:101DB000480A02F0BBFC1E2C40F0978302E000BFF3
:101DC0000000A042286803F031F93868402114F07F
:101DD00039FB3868AC2114F035FB286803F038F97A
:101DE000B0EE008AB0EE480A02F0A0FC286803F0CA
:101DF0001DF93868C02114F025FB3868552114F00E
:101E000021FB3868552114F01DFB2968044608465B
:101E100003F01EF9B0EE480A02F088FCAC2C40F04A
:101E200064831FED190A02F081FC286803F0FEF8B4
:101E300038687D2114F006FB3868042114F002FB99
:101E4000286803F005F9B0EE008AB0EE480A02F007
:101E50006DFC286803F0EAF83868FD2114F0F2FA06
:101E60003868552114F0EEFA3868552114F0EAFA72
:101E700029680446084603F0EBF8B0EE480A02F081
:101E800055FC042C40F031831FED330A02F04EFC68
:101E9000286803F0CBF83868412114F0D3FA386889
:101EA000032114F0CFFA286803F0D2F8B0EE008ACC
:101EB000B0EE480A02F03AFC286803F0B7F8386838
:101EC000C12114F0BFFA3868552114F0BBFA386804
:101ED000552114F0B7FA29680446084603F0B8F80B
:101EE000B0EE480A02F022FC032C40F0FE821FED07
:101EF0004C0A02F01BFC286803F098F838687C2133
:101F000014F0A0FA3868002114F09CFA286803F055
:101F10009FF8B0EE008AB0EE480A02F007FC28688D
:101F200003F084F83868FC2114F08CFA38685521E5
:101F300014F088FA3868552114F084FA29680446A8
:101F4000084603F085F8B0EE480A02F0EFFB002CDB
:101F500040F0CB821FED660A02F0E8FB286803F030
:101F600065F838686D2114F06DFA38680D2114F0A9
:101F700069FA286803F06CF8B0EE008AB0EE480AFF
:101F800002F0D4FB286803F051F83868ED2114F012
:101F900059FA3868552114F055FA3868552114F06B
:101FA00051FA29680446084603F052F8B0EE480A90
:101FB00002F0BCFB0D2C40F098821FED7F0A02F06E
:101FC000B5FB286803F032F83868922114F03AFA29
:101FD0003868922114F036FA386804A9062214F001
:101FE0000DFA286803F034F82868BDF810A0BDF891
:101FF0001290BDF8146003F019F838686D2114F0E0
:1020000021FA3868092114F01DFA286803F020F835
:10201000B0EE008AB0EE480A02F088FB286803F0B0
:1020200005F83868ED2114F00DFA3868552114F0E0
:1020300009FA3868552114F005FA2968044608465B
:1020400003F006F8B0EE480A02F070FB092C40F0ED
:102050004C821FEDA50ACDF80C90019602F066FBAC
:10206000286802F0E3FF3868922114F0EBF9386831
:10207000922114F0E7F9386804A9062214F0BEF999
:10208000286802F0E5FFBDF812009DF8109002905C
:1020900028689DF811B0BDF8146002F0C7FF3868D9
:1020A0006D2114F0CFF93868002114F0CBF92868BD
:1020B00002F0CEFFB0EE008AB0EE480A02F036FB26
:1020C000286802F0B3FF3868ED2114F0BBF93868D6
:1020D000552114F0B7F93868552114F0B3F929687F
:1020E0000446084602F0B4FFB0EE480A02F01EFBB8
:1020F000002C40F0FA81286849EA0B2402F096FF90
:1021000038687E2114F09EF93868B62114F09AF9E7
:10211000286802F09DFF1FEDD60A02F007FB0FFAB8
:102120008AF021B2411A40F255508142C0F2DD815D
:102130000399029A09B212B2891A8142C0F2D5817A
:10214000019831B200B2401AB0F52A7FC0F2CD81B9
:10215000286802F06BFF3868802114F073F9386842
:10216000552114F06FF93868552114F06BF928687F
:1021700002F06EFFB0EE008AB0EE480A02F0D6FA26
:10218000286802F053FF3868802114F05BF9386842
:10219000552114F057F93868552114F053F928687F
:1021A00002F056FFB0EE480A02F0C0FA00208DF8A7
:1021B0001700286802F03AFF3868802114F042F9CD
:1021C0003868552114F03EF93868552114F03AF971
:1021D0008DF81700286802F03BFFB0EE480A02F0C5
:1021E000A5FA286802F022FF3868802114F02AF945
:1021F0003868552114F026F93868552114F022F971
:102200008DF81700286802F023FFB0EE480A02F0AC
:102210008DFA286802F00AFF38687E2114F012F95E
:102220003868B62114F00EF9286802F011FF9FED0E
:102230001D0A02F07BFA286802F0F8FE3868802157
:1022400014F000F93868552114F0FCF8386855216D
:1022500014F0F8F88DF81700286802F0F9FEB0EED7
:10226000480A02F063FA286802F0E0FE386880212C
:1022700014F0E8F83868552114F0E4F8386855216E
:1022800014F0E0F88DF81700286802F0E1FEB0EED7
:10229000480A02F04BFA9DF817001E2840F02581ED
:1022A00002E000BF0000A042286802F0BFFE3868CC
:1022B0007D2114F0C7F83868042114F0C3F82868A9
:1022C00002F0C6FEB0EE008AB0EE480A02F02EFA26
:1022D000286802F0ABFE3868FD2114F0B3F83868C6
:1022E000552114F0AFF83868552114F0ABF88DF88B
:1022F0001700286802F0ACFEB0EE480A02F016FAA9
:102300009DF81700042840F0F080286802F08EFE47
:1023100038687C2114F096F83868002114F092F89F
:10232000286802F095FEB0EE008AB0EE480A02F08E
:10233000FDF9286802F07AFE3868FC2114F082F872
:102340003868552114F07EF83868552114F07AF871
:102350008DF81700286802F07BFEB0EE480A02F004
:10236000E5F99DF81700002840F0BF80286802F0CA
:102370005DFE3868402114F065F83868AB2114F030
:1023800061F8286802F064FEB0EE008AB0EE480AF8
:1023900002F0CCF9286802F049FE3868C02114F038
:1023A00051F83868552114F04DF83868552114F06B
:1023B00049F88DF81700286802F04AFEB0EE480A86
:1023C00002F0B4F99DF81700AB2840F08E80286821
:1023D00002F02CFE3868412114F034F838680121ED
:1023E00014F030F8286802F033FEB0EE008AB0EE48
:1023F000480A02F09BF9286802F018FE3868C121EB
:1024000014F020F83868552114F01CF8386855216C
:1024100014F018F88DF81700286802F019FEB0EED5
:10242000480A02F083F99DF8170001285DD1286859
:1024300002F0FCFD3868532114F004F838680821D4
:1024400014F000F8286802F003FEB0EE008AB0EE47
:10245000480A02F06BF9286802F0E8FD3868D321D9
:1024600013F0F0FF3868552113F0ECFF3868552160
:1024700013F0E8FF8DF81700286802F0E9FDB0EED0
:10248000480A02F053F99DF8170008282DD1286852
:1024900002F0CCFD3868582113F0D4FF38680421CD
:1024A00013F0D0FF286802F0D3FDB0EE008AB0EE42
:1024B000480A02F03BF9286802F0B8FD3868D821D4
:1024C00013F0C0FF3868552113F0BCFF3868552160
:1024D00013F0B8FF8DF81700286802F0B9FDB0EED0
:1024E000480A02F023F99DF8170040F29806C2F25C
:1024F0000006306802F09AFD3868802113F0A2FFD0
:102500003868552113F09EFF306802F0A1FDB0EE4F
:10251000008AB0EE480A02F009F9306802F086FD40
:102520003868802113F08EFF3868552113F08AFF38
:10253000306802F08DFDB0EE480A02F0F7F830681E
:1025400002F074FD3868142113F07CFF3868B6215E
:1025500013F078FF306802F07BFD1FEDAE9AB0EE0D
:10256000490A02F0E3F8306802F060FD3868802123
:1025700013F068FF3868552113F064FF306802F0EB
:1025800067FDB0EE480A02F0D1F8306802F04EFD67
:102590003868802113F056FF3868552113F052FF38
:1025A000306802F055FDB0EE480A02F0BFF830681E
:1025B00002F03CFD38683C2113F044FF38680121EB
:1025C000012513F03FFF306802F042FDB0EE490AEA
:1025D00002F0ACF8306802F029FD3868BC2113F035
:1025E00031FF3868552113F02DFF31680446084645
:1025F00002F02EFDB0EE480A02F098F8A00700F1B4
:10260000CA80306802F012FD3868BC2113F01AFF4E
:102610003868552113F016FF31680446084602F069
:1026200017FDB0EE000A02F081F8A00700F1B280B9
:10263000306802F0FBFC3868BC2113F003FF3868F7
:10264000552113F0FFFE31680446084602F000FDF4
:10265000B0EE000A02F06AF8A00700F19B80306833
:1026600002F0E4FC3868BC2113F0ECFE3868552118
:1026700013F0E8FE31680446084602F0E9FCB0EECB
:10268000000A02F053F8A00700F18480306802F0DD
:10269000CDFC3868BC2113F0D5FE3868552113F005
:1026A000D1FE31680446084602F0D2FCB0EE000AC2
:1026B00002F03CF8A0076DD4306802F0B7FC38682F
:1026C000BC2113F0BFFE3868552113F0BBFE316802
:1026D0000446084602F0BCFCB0EE000A02F026F800
:1026E000A00757D4306802F0A1FC3868BC2113F071
:1026F000A9FE3868552113F0A5FE31680446084646
:1027000002F0A6FCB0EE000A02F010F8A00741D4D7
:10271000306802F08BFC3868BC2113F093FE3868F7
:10272000552113F08FFE31680446084602F090FCF4
:10273000B0EE000A01F0FAFFA0072BD4306802F0D7
:1027400075FC3868BC2113F07DFE3868552113F004
:1027500079FE31680446084602F07AFCB0EE000AC1
:1027600001F0E4FFA00715D4306802F05FFC386880
:10277000BC2113F067FE3868552113F063FE316801
:102780000446084602F064FCB0EE000A01F0CEFFF9
:10279000002500E00125002D4FF0400500F0F780F6
:1027A00014F0040040F0F380306802F03FFC386819
:1027B000802113F047FE3868552113F043FE30683E
:1027C00002F046FCB0EE008AB0EE480A01F0AEFF1F
:1027D000306802F02BFC3868802113F033FE386833
:1027E000552113F02FFE306802F032FCB0EE480A9B
:1027F00001F09CFF306802F019FC3868142113F0D6
:1028000021FE3868B62113F01DFE306802F020FC6E
:102810009FEDAE0A01F08AFF306802F007FC3868CD
:10282000802113F00FFE3868552113F00BFE30683D
:1028300002F00EFCB0EE480A01F078FF306802F0BA
:10284000F5FB3868802113F0FDFD3868552113F041
:10285000F9FD31680446084602F0FAFBB0EE480A7A
:1028600001F064FF0F2C40F08180306802F0DEFB45
:1028700038680F2113F0E6FD38680021002513F0B9
:10288000E1FD306802F0E4FBB0EE008AB0EE480AE9
:1028900001F04CFF306802F0C9FB38688F2113F05B
:1028A000D1FD3868552113F0CDFD31680446084646
:1028B00002F0CEFBB0EE480A01F038FF002C5ED1EA
:1028C000306802F0B3FB3868102113F0BBFD3868A4
:1028D000822113F0B7FD306802F0BAFBB0EE008A37
:1028E000B0EE480A01F022FF306802F09FFB386822
:1028F000902113F0A7FD3868552113F0A3FD31682E
:102900000446084602F0A4FBB0EE480A01F00EFFB0
:10291000822C33D1306802F089FB3868112113F022
:1029200091FD3868002113F08DFD306802F090FBB6
:10293000B0EE008AB0EE480A01F0F8FE306802F00E
:1029400075FB3868912113F07DFD3868552113F02F
:1029500079FD31680446084602F07AFBB0EE480A79
:1029600001F0E4FE34B3022509E000BFFF2598F82A
:10297000680001280FD0FFF7FFF80EE001254FF2A5
:10298000770105EB4500C0F602010844857898F808
:1029900068000128EFD100F0B9F80221002D08BF2E
:1029A0000121284688F8001006B0BDEC048B01B068
:1029B000BDE8F08F306802F039FB3868152113F05C
:1029C00041FD3868802113F03DFD306802F040FB86
:1029D000B0EE008AB0EE480A01F0A8FE306802F0BE
:1029E00025FB3868952113F02DFD3868552113F02B
:1029F00029FD31680446084602F02AFBB0EE480A79
:102A000001F094FE802C2BD1306802F00FFB386867
:102A1000162113F017FD3868002113F013FD3068FC
:102A200002F016FBB0EE008AB0EE480A01F07EFE1E
:102A3000306802F0FBFA3868962113F003FD38681D
:102A4000552113F0FFFC31680446084602F000FBF4
:102A5000B0EE480A01F06AFE24B104258FE700BFFA
:102A600003258CE7306802F0E1FA3868182113F08A
:102A7000E9FC3868012113F0E5FC306802F0E8FA5F
:102A8000B0EE008AB0EE480A01F050FE306802F065
:102A9000CDFA3868982113F0D5FC3868552113F029
:102AA000D1FC31680446084602F0D2FAB0EE480A7A
:102AB00001F03CFE012C07D1002598F868000128A0
:102AC0003FF469AF57E700BF052558E70000A04273
:102AD00010B540F66404C2F2000404F1700001F085
:102AE00085FE44F2B870C0F6020090ED001AB4EE14
:102AF000410AF1EE10FA03DD02202070012010BD22
:102B00002078013818BF012010BD00002DE9F04FDA
:102B100081B02DED108B84B00020CDE9020001F0D2
:102B20007BFEB0EE408A01F077FE30EE480AB2EE4E
:102B3000041AB4EE410A40F66406F1EE10FAC2F24D
:102B400000068DED018A2BDD43F6AC0041F2B06149
:102B5000C3F62230C3F6CE11C6E90D0141F23F6043
:102B6000C4F21B10F06440F25C60F163C2F200003A
:102B700002210BF017FA96ED130A9FEDEF1A40F2BF
:102B8000546081EE000AC2F20000012186ED140AB1
:102B90000BF008FA04B0BDEC108B01B0BDE8F08F6B
:102BA00040F2546840F2800940F2B40440F2980BBD
:102BB0009FEDE3CA9FEDE5DADFEDE28A9FEDE2AA41
:102BC000C2F20008C2F20009C2F2000402ADC2F271
:102BD000000B41F26F7A0CE001F01EFE9DED011A30
:102BE00030EE410AB2EE041AB4EE410AF1EE10FAE8
:102BF000AADC404602210BF0D5F99FEDD00A01F086
:102C000057FD0027F764C6E90D77F763D9F8000090
:102C100002F00CFA2068922113F014FC2068922133
:102C200013F010FC20682946062213F0E7FBD9F8C0
:102C3000000002F00DFA9DF809109DF80800090245
:102C40009DF80B3009B208449DF80A2000EE100AE6
:102C5000180200B2104402EE100A9DF80D009DF813
:102C60000C10000200B296ED181A0844B8EEC00A23
:102C7000B8EEC22A03EE100A21EE000A21EE022A63
:102C8000B8EEC33A21EE031A22EE023A20EE004AD1
:102C900034EE033A21EE014A34EE033AB1EEC3EAD0
:102CA00096ED133ADBF8000086ED010A86ED022A64
:102CB00086ED031A33EE0E0A86ED130A02F0B6F91A
:102CC0002068802113F0BEFB20682946082213F0FB
:102CD00095FBDBF8000002F0BBF99DF808000F2817
:102CE00040D19DF80B109DF80A0009029DF80D30A7
:102CF00009B208449DF80C2000EE100A180200B238
:102D0000104405EE100A9DF80F009DF80E10000209
:102D100000B2084496ED193A06EE100AB8EEC00A61
:102D200096ED0D1A96ED0E2A96ED0F4AB8EEC55A9D
:102D3000B8EEC66A23EE000A23EE055A23EE063AE1
:102D400086ED050A30EE010A35EE021A33EE042A4A
:102D500086ED065A86ED043A86ED0D0A86ED0E1ACA
:102D600086ED0F2A47B3B4EE49EAF1EE10FA35DAF0
:102D7000B4EE6FEAF1EE10FAD8BFF0EE4EFA96ED2F
:102D8000050AB4EE6D0AF1EE10FA30DBF0EE40DA2F
:102D900096ED060AB4EE6E0AF1EE10FA35DBF0EEAF
:102DA00040EA96ED040AB4EE6A0AF1EE10FA3ADB54
:102DB000F0EE40AA3EE000BF96ED04FAD6ED05CA5B
:102DC000D6ED06BAF0EE6CDAF0EE6BEAF0EE4FAA52
:102DD000F0EE4EFAB0EE4E9A2CE000BFB0EE4E9AF6
:102DE00096ED050AB4EE6D0AF1EE10FACEDAB4EE05
:102DF0006C0AF1EE10FAD8BFF0EE40CA96ED060A62
:102E0000B4EE6E0AF1EE10FAC9DAB4EE6B0AF1EE26
:102E100010FAD8BFF0EE40BA96ED040AB4EE6A0A92
:102E2000F1EE10FAC4DAB4EE4F0AF1EE10FAD8BFA0
:102E3000B0EE40FA39EE6F8AB4EE4C8A7DEEEC9A31
:102E40003EEEEBBAF1EE10FA3AEECFEA17DCF4EE12
:102E5000689AF1EE10FA12DCB4EE68BAF1EE10FAEC
:102E60000DDCB4EE68EAF1EE10FA08DCB0EE4A0AC6
:102E700001F01EFC574507F10107FFF4C7AE96EDC0
:102E80000D1A96ED130A96ED0E2A81EE0D3A96ED87
:102E90000F1A80EE0D0A82EE0D2A81EE0D1AB4EEA5
:102EA0004C8AF1EE10FA86ED0D3A86ED130A86EDA6
:102EB0000E2A86ED0F1A3FF78FAE9FED254AB6EE2C
:102EC000005A30EE044AB0EEC44AB4EE454AF1EE80
:102ED00010FA3FF781AEF4EE689AF1EE10FA3FF780
:102EE0007BAEB4EE68BAF1EE10FA3FF775AEB4EE11
:102EF00068EAF1EE10FA3FF76FAE9FED164AB0EEBA
:102F0000C33AB4EE443AF1EE10FA3FF765AE9FEDE6
:102F1000113AB0EEC22AB4EE432AF1EE10FA3FF7AE
:102F20005BAE9FED0C2AB0EEC11AB4EE421AF1EE80
:102F300010FA3FF751AE20E6C3F51C410AD7A33B78
:102F40003333333F9A99193E6F12033A0080BB45E1
:102F5000CDCC1CC10AD7233C10B582B040F2B800DA
:102F6000C2F2000000680DF10703EE21F32209F020
:102F700033FE9DF8070000F0090009280DD040F647
:102F8000D804C2F2000404F1380001F013FC84ED0F
:102F90000D0A00F0E5F900F00BF802B010BD0000DA
:102FA00040F6D800C2F200007047000000000000A8
:102FB0002DE9F04F81B02DED028B88B040F2B804BE
:102FC000C2F2000420680DF11F03EE21F92209F07E
:102FD00003FE20680DF11E03EE21F82209F0FCFD2E
:102FE00020680DF11D03EE21F72209F0F5FD40F6F2
:102FF000D80BC2F2000BDBF83000FDF702FE9FEDAC
:10300000B40B53EC102BFDF7FFFC9FEDB30B53EC0F
:10301000102BFDF752FC8146BBF92200BBF9208042
:103020008A46FDF7EEFD02460B4648465146FDF73F
:10303000EBFC02460B4648465146FDF7E5FC9FED8A
:10304000A80B57EC104B22463B46FDF7DDFC05462E
:1030500040460E46FDF7D5FD4A465346FDF7D4FCE3
:103060002A463346FDF729FC22463B46FDF7CCFCB9
:103070009FED9D0B56EC107B3A463346FDF7C4FCA2
:103080009FED9B0B53EC102BFDF717FC0446BBF890
:103090001E000D46FDF7C6FD02460B46204629469A
:1030A000FDF7B2FC9FED948B044653EC182B0D46B4
:1030B000FDF78BFD002840F0CD809DF81E009DF8A7
:1030C0001D1000019DF81F2040EA013040EA121057
:1030D0000390BBF92400BBF92A100595BBF92650D3
:1030E0000494BBF928400691FDF78BFDCDE9011052
:1030F0002846FDF786FD02460B4648465146FDF739
:1031000083FC80468B46484651464A465346FDF767
:103110007BFC05462046B9460F46FDF772FD024688
:103120000B4628463946FDF76FFC4A463346B24601
:10313000FDF76AFC04460D464046594642465B464A
:1031400040F6D80BC2F2000BFDF7B7FB22462B4628
:10315000FDF7B3FB9FED6A0B53EC102BFDF754FC0E
:103160009FED690B04460D46DDE9011053EC102B71
:10317000FDF74AFC22462B46FDF79FFB04460398C9
:103180000D46FDF73EFD9FED620B02460B4651ECEE
:10319000100BFDF733FC9FED600B07460E4653EC1A
:1031A000102B20462946FDF72FFC02460B463846D9
:1031B0003146FDF782FB9FED5A0B53EC102BFDF7C8
:1031C00023FCDDE90423FDF791FC0446BBF92E0046
:1031D0000D46FDF716FD02460B4620462946FDF733
:1031E00013FC02460B4620462946FDF70DFC9FEDD9
:1031F0004E0B53EC102BFDF707FC0646BBF92C00D9
:103200000F46FDF7FEFC02460B4620462946FDF719
:10321000FBFB4A465346FDF7F7FB32463B46FDF7BC
:103220004CFB064606980F46FDF7EBFC02460B46A4
:1032300030463946FDF741FB9FED3D0B53EC102B1B
:10324000FDF7E2FB02460B4620462946FDF735FB1B
:1032500041EC180B9BED040B9FED371B51EC100B51
:1032600053EC112B8BED028BFDF727FB9FED340BFD
:1032700004460D4651EC100B53EC182BFDF736FCB1
:1032800041EC100B9FED301B1EF0BAFF51EC100B00
:103290009FED2F0B53EC102BFDF70FFB02460B4657
:1032A00020462946FDF7B0FB9FED2B0B53EC102B6E
:1032B000FDF71CFCFDF7F5FCB0EE480AF0EE680ADD
:1032C000CBF8040008B0BDEC028B01B0BDE8F08F74
:1032D000000000000000E03F000000000040EFC0E0
:1032E000000000000000C03E000000000000003FA1
:1032F000000000000000F03F00000000000000009F
:10330000000000000000D0BF000000000000F0C07E
:103310000000000000003041000000000000303FCD
:1033200000000000006AB840000000000000003EFD
:10333000000000000000B03F000000606612714015
:1033400000000000D0BCF84000000020665AC83FD2
:10335000000000000000F0BF00000080BE9F7A3F28
:103360002DE9F04F83B040F2B804C2F200042068A7
:103370000DF10B03EE21FC2209F02EFC20680DF16B
:103380000A03EE21FB2209F027FC20680DF1090356
:10339000EE21FA2209F020FC9DF80A009DF80910A0
:1033A00000019DF80B2040EA013040EA1210FDF7C1
:1033B00028FC9FED3B0B834653EC102B8846FDF712
:1033C00023FB40F6D809C2F200090446B9F81800F8
:1033D0000D46FDF727FC9FED340B074653EC102BF1
:1033E0000E46FDF711FB02460B4620462946FDF727
:1033F00064FA0446B9F91A00B9F91CA00D46FDF7A4
:1034000000FC02460B4620462946FDF7FDFA9FEDDB
:10341000280B0190894653EC102B58464146FDF786
:10342000F3FA9FED250B05460C4653EC102B38465E
:103430003146FDF7E9FA02460B4628462146FDF7DC
:103440003CFA02460B46FDF7DFFA044650460D46AD
:10345000FDF7D7FB02460B4620462946FDF7D4FA76
:10346000024601980B464946FDF727FA04460D46E9
:10347000FDF7E5FB40F6D8069FED110BC2F2000602
:10348000306353EC102B20462946FDF72FFB41EC0F
:10349000100B86ED040B03B0BDE8F08F00BF00BF3A
:1034A000000000000000103F00000000000050BFBE
:1034B000000000000000E03E00000000000020BF0F
:1034C000000000000000B4402DE9F04182B040F25D
:1034D000B806C2F2000630684FF000080DF105038F
:1034E000EE21D0228DF8058009F076FB9DF80510BD
:1034F00040F6D807C2F20007306801AC7970EE21BF
:103500008822234609F068FB30680DF10305EE219F
:1035100089222B4609F060FB9DF803009DF80410FA
:103520008A2241EA002130683983EE21234609F0DE
:1035300053FB3068EE218B222B4609F04DFB9DF8A2
:1035400003009DF804108C2241EA00213068798341
:10355000EE21234609F040FB3068EE218D222B46F8
:1035600009F03AFB9DF803009DF804108E2241EA11
:1035700000213068B983EE21234609F02DFB306825
:10358000EE218F222B4609F027FB9DF803009DF8C2
:103590000410902241EA00213068F983EE2123468D
:1035A00009F01AFB3068EE2191222B4609F014FB3A
:1035B0009DF803009DF80410922241EA0021306832
:1035C0003984EE21234609F007FB3068EE2193226F
:1035D0002B4609F001FB9DF803009DF8041094228E
:1035E00041EA002130687984EE21234609F0F4FA9B
:1035F0003068EE2195222B4609F0EEFA9DF8030083
:103600009DF80410962241EA00213068B984EE2129
:10361000234609F0E1FA3068EE2197222B4609F0A3
:10362000DBFA9DF803009DF80410982241EA00217E
:103630003068F984EE21234609F0CEFA3068EE2195
:1036400099222B4609F0C8FA9DF803009DF8041052
:103650009A2241EA002130683985EE21234609F09B
:10366000BBFA3068EE219B222B4609F0B5FA9DF893
:1036700003009DF804109C2241EA002130687985FE
:10368000EE21234609F0A8FA3068EE219D222B4650
:1036900009F0A2FA9DF803009DF804109E2241EA69
:1036A00000213068B985EE21234609F095FA30688B
:1036B000EE219F222B4609F08FFA9DF803009DF81A
:1036C0000410E02241EA00213068F985EE21B6239A
:1036D00009F092FA3068EE21F4222F2309F08CFAD7
:1036E0003068EE21F522102309F086FA30680DF1DA
:1036F0000603EE21D0228DF8068009F06DFA9DF8C0
:10370000060078700A2002F0EFFF30680DF1070321
:10371000EE21D0228DF8078009F05EFA9DF80700AF
:1037200001217870002808BF02213970C7E90D888F
:1037300002B0BDE8F081000010B540F6D804C2F236
:10374000000404F1380001F051F844F2BC70C0F6F6
:10375000020090ED001AB4EE410AF1EE10FA03DD1A
:1037600002202070012010BD2078013818BF0120F0
:1037700010BD000080B540F60000C4F20200022136
:1037800003F0A8F8012080BD70470000014645F60F
:103790008470C2F2000005F0AFBE000080B545F6AF
:1037A0008470C2F2000005F0B9FE043818BF012091
:1037B00080BD000080B500F00DF801281CBF01207D
:1037C00080BD45F68470C2F20000BDE8804006F07E
:1037D0000BB8000080B582B001208DF80700FFF71C
:1037E000C9FF002804BF00208DF807009DF80700DE
:1037F00002B080BD80B513460A46014645F6847086
:10380000C2F2000006F0D0F9002818BF012080BDE8
:1038100042F60C10C2F200000068012100221AF0EA
:1038200087B8000080B513460A46014645F6847005
:10383000C2F2000006F05AFA002818BF012080BD2D
:1038400042F60C10C2F200000068022100221AF0B9
:103850006FB8000010B540F61810C2F2000000F07A
:1038600047F80AF053FBFEF70BF80AA0FDF70CFF30
:1038700040F2C864C2F2000409A084ED000AFDF71A
:1038800003FF09A084ED010AFDF7FEFE84ED020AA4
:1038900010BD00BF54454D5053454E534F5200008C
:1038A00056524546494E540056426174000000008D
:1038B00010B540F61810C2F200000021017000F5AA
:1038C000027446F26001C2F20001204600220EF0AE
:1038D000ABFC20464FF4FA710EF02AFDB7EE000A59
:1038E00020460EF0E5FC2046BDE810400EF06EBD0F
:1038F000B0B5044640687F2824BF0020606021786E
:1039000061B305290AD1A06804F50275F0B1B6EEDD
:10391000000A28460EF0CCFCA1680EE004EB800003
:10392000806804F5027588B1B6EE000A28460EF0EC
:10393000BFFC606804EB8000816828460EF0F8FC4C
:10394000207858B1606801306060B0BDB7EE000A01
:1039500028460EF0ADFC20780028F3D104F5027063
:10396000B7EE000A0EF0A4FC606801306060B0BDE4
:10397000F0B581B00446007888424FF0000001D1D4
:1039800001B0F0BD15460F4605292170606003D1D6
:10399000A560002001B0F0BD781E032836D804F1E0
:1039A00008004FF40071FCF763FC781C7F21B1FB29
:1039B000F0F007EB470E013000F0030C00F0FC01C3
:1039C000102000EB071200EBC7030C20142600EBBD
:1039D000870006EB8E0600BFA5602550E550A55177
:1039E00004391444F8D1BCF1000FD2D0BCF1010F5E
:1039F000A560CED004EB8700BCF1020FC560C8D033
:103A000004EBC7000561002001B0F0BD47B1062FEF
:103A100010D1042B1AD94FF0FF3001B0F0BD00BF18
:103A200004F108004FF40071FCF722FC002001B003
:103A3000F0BD00BF002004F8080B20464FF40071D1
:103A4000FCF716FC6FF0010001B0F0BD43F6B85171
:103A5000C0F6020104F1080001EB43214FF40072AB
:103A6000FCF7DFFB002001B0F0BD0000FEE7000026
:103A700045F26840C2F2000002F0ECB845F268403E
:103A8000C2F2000002F0E6B845F29040C2F2000037
:103A900002F0E0B845F29040C2F2000002F0DAB85D
:103AA000002070470020704710B545F24414C2F260
:103AB000000443F67C21C2F200012046002213F0EC
:103AC00029FD43F27C21C2F20001204613F014FDCF
:103AD000002010BD70B545F244160546C2F200063E
:103AE0000C463046294613F007FD304613F0DEFC45
:103AF0002846214615F016FE002070BD00207047B4
:103B000010B545F24412C2F20002D2F8BC22D2F83B
:103B10001432002B1CBF012010BD45F24414C2F228
:103B200000040A460146204613F0F4FC2046BDE896
:103B3000104013F07FBD000042F65850C2F2000062
:103B40007047000010B540F67860C2F200000068CF
:103B500040F2B8614FF29C04C2F20001C0F60204C8
:103B60004860204601F09EF904F1100001F09AF936
:103B700004F1200001F096F904F1300001F092F90F
:103B800004F1400001F08EF904F1500001F08AF9CF
:103B900004F1600001F086F904F1700001F082F98F
:103BA00004F18000BDE8104001F07CB9B0B58AB0E6
:103BB00045F26845C2F200050446401B01461CBFA1
:103BC00001210E20059000200690CDE90000CDE9EE
:103BD00002000E2001220491099069462046CDE999
:103BE000072201F035FF204602F09EFAAC4205D0D4
:103BF0002046102101F0B4FE0AB0B0BD45F2684085
:103C0000C2F20000022101F0ABFE0AB0B0BD00001C
:103C10004FF0000C80E80610C0E903C380F814C020
:103C20007047000080B582B001AB01F0B1FE02B078
:103C300080BD0000B0B582B040F2B004C2F2000412
:103C40002078002570B140F61810C2F20000002163
:103C50004FF4167200230095FFF78AFE257002B01C
:103C6000B0BD00BF40F61810C2F2000005214FF4AD
:103C7000167200230095FFF77BFE2078451C257007
:103C800002B0B0BD40F26051C2F2000188767047C8
:103C900080B582B040F26050C2F20000022181760D
:103CA00040F618104FF0000CC2F200000021002274
:103CB0000023CDF800C0FFF75BFE02B080BD00001E
:103CC00040F26050C2F200001030704710B50AF0A8
:103CD00057FA40F26054C2F2000420610CF020FE5A
:103CE00000F00EF800200CF041FE0DF05DFD01210A
:103CF0002069A17600210AF0AFF9606110BD0000D3
:103D00002DE9F04F81B008F08BFF044608F092FADD
:103D1000074616F065FE00900EF0B0FD834616F0E3
:103D2000A5FB01F0E7F9814604F1740004F1780184
:103D300004F1700240F2605446F67013C2F20004BF
:103D4000C6F2743344F8283F68230025C4E90135DE
:103D500046F27913C0F27703C4F80F3046F6727357
:103D6000C6F66C43C4F81E3046F64963C5F6737355
:103D700043F63548E36346F24413C0F60008C6F242
:103D80007413C4E90C0154F8186C2046C4F84C8034
:103D9000C4F81350C4F81750C4F82250C4F8265081
:103DA000C4E91035C4F84750A2630AF0F7F9014698
:103DB00030460AF0FFF940F6286046F66C12C2F26F
:103DC0000000C5F66D7246F66163C0F2670380E8D5
:103DD0002C00C0F80F2046F26F62C0F26602C0F8F5
:103DE000132046F66712C5F66D72C0F81E2046F61F
:103DF0006372C0F26E02C0F8222046F25352C7F23C
:103E00007262C26344F25F72C6F66952026447F29C
:103E10005342C7F26142426446F27452C0F84720EE
:103E200041F6B002C2F2000209F1140102F12003CE
:103E30001C3254F8186CC0F84C80C0F81750C0F809
:103E400026500363426381630AF0A8F901463046B5
:103E50000AF0B0F940F6A83046F26C56C2F2000003
:103E6000C0F26E06C0E900656526C0F8136046F230
:103E70004C56C7F26646C66344F65F4646F661692D
:103E8000C6F2657607F1080107F1300207F1500329
:103E9000C6F6674946F6466AC0E9106554F8186CDC
:103EA000C0F84C808560C0F80F90C0F81750C0F87B
:103EB0001EA0C0F82250C0F82650C0F84750C0E9F4
:103EC0000C1283630AF06AF9014630460AF072F96F
:103ED00040F6885046F26C56C2F20000C0F26E0600
:103EE000C0E900656526C0F8136046F65216C6F6AE
:103EF0006706C66345F67476C6F24C5606646726B6
:103F000007F5C27107F5D67207F5E673466454F8F3
:103F1000186CC0F84C808560C0F80F90C0F817503E
:103F2000C0F81EA0C0F82250C0F82650C0F8475074
:103F3000C0E90C1283630AF031F9014630460AF0F9
:103F400039F9D7E95B01DDF8009000F10802D9F8F2
:103F50005C0146F6667600F1080340F6F830C2F2DE
:103F60000000C7F26E46C0E9006546F26216C6F66A
:103F70006336C0F80F6046F67706C6F26556C0F89D
:103F80001E6046F24C56C7F26646C66344F65F565C
:103F9000C7F26F46066447F26F2608314FF06C0A8D
:103FA000466454F8186CC0F84C808560C0F8135013
:103FB000C0F81750C0F822A0C0F82650C0F84750EB
:103FC000C0E90C2183630AF0E9F8014630460AF0A3
:103FD000F1F8D7E9BA0146F6667700F10802D9F898
:103FE0006001C7F26E4700F1080340F6D850C2F2F4
:103FF0000000C0E9007546F26217C6F66337C0F8E4
:104000000F7046F67707C6F26557C0F81E7046F681
:104010005217C6F66707C76345F67477C6F64D773D
:10402000076446F674770831C0F2720754F8186CCA
:10403000C0F84C808560C0F81350C0F81750C0F825
:1040400022A0C0F826504764C0F84750C0E90C21B0
:1040500083630AF0A3F8014630460AF0ABF840F655
:104060005830C2F200007827C0E9007547F66407AF
:10407000C0F80F7046F66167C0F26707C0F81E709F
:1040800045F24C17C5F65277C76347F25347C7F25C
:10409000614709F1440109F1480209F14C03076441
:1040A000652754F8186CC0F84C808560C0F8135030
:1040B000C0F81750C0F82250C0F826504764C0F826
:1040C0004750C0E90C1283630AF068F80146304695
:1040D0000AF070F80BF1480207CA43F2721600F1B9
:1040E000080340F69840C2F20000866043F2722650
:1040F000C0F8176043F27236C0F8266045F6747651
:10410000C6F64676466446F66F6646F64D7545F643
:10411000727747F2515A44F65F49C0F2740608318B
:104120000832C6F67475C7F24357C6F2614AC6F242
:104130006569C0F8476054F8186CC0F84C80C0E955
:104140000057C0F80F50C0F81370C0F81E50C0F8E8
:104150002270C0F83CA0C0F84090C0E90C318263E6
:104160000AF01CF8014630460AF024F80BF19C02D4
:1041700007CA43F2721600F1080340F64840C2F243
:104180000000866043F27226C0F8176043F2723670
:10419000C0F8266045F67476C6F24216466446F2CA
:1041A0006136C0F26B0608310832C0F8476054F837
:1041B000186CC0F84C80C0E90057C0F80F50C0F828
:1041C0001370C0F81E50C0F82270C0E90FA9C0E9F2
:1041D0000C31826309F0E2FF0146304609F0EAFF44
:1041E0000BF1F00207CA43F2721600F1080340F621
:1041F0003850C2F20000866043F27226C0F81760A1
:1042000043F27236C0F8266047F26846C4F25F6631
:10421000466446F6467645F25F29C7F26E46083197
:104220000832C6F26979C0F8476054F8186CC0F8D3
:104230004C80C0E90057C0F80F50C0F81370C0F8A8
:104240001E50C0F82270C0F83CA0C0F84090C0E9F1
:104250000C31826309F0A2FF0146304609F0AAFF43
:104260000BF5A27207CA43F2721600F1080340F67A
:10427000E840C2F20000C0E90057C0F81370C0F86F
:10428000227043F27237C0F8267047F26847C4F2D2
:104290005F27476446F2421708310832866043F2CE
:1042A0007226C6F6633754F8184CC0F84C80C0F834
:1042B0000F50C0F81760C0F81E50C0E90FA9C0F831
:1042C0004770C0E90C31826309F068FF014620465F
:1042D00001B0BDE8F04F09F06DBF000086B000F0FE
:1042E00063FA90ED030A40F2605A41F22C6B40F2FF
:1042F00024489FEDBE8A40F618169FEDB89A0446F2
:10430000B8EE400AC2F2000AC2F2000B0027C2F265
:10431000000803ADC2F200068AED010A06E000BF04
:104320000130CAF80800212019F088FA9BF8000033
:10433000042800F043819AF81A00002800F0E98070
:1043400000200CF013FB9AF81A000138052800F23F
:10435000BB80DFE800F0030B171F272F48F628402B
:10436000C0F602000BF05AFEAEE000BF44F6284053
:10437000C0F602000BF052FE0420052198A20DF0B9
:10438000DFF9A1E04CF62840C0F602000BF02AFC51
:104390009AE000BF4DF22840C0F602000BF022FC6C
:1043A00092E000BF4DF22800C0F602000BF01AFCAC
:1043B0008AE000BF00F0F8F990ED030A9AED031AC5
:1043C000B8EE400A30EE411AB4EE491AF1EE10FA96
:1043D0007ADB9AF818008AED030A012810D1DAF87E
:1043E0001400406810B9DAF810000068D0F808909E
:1043F000CAF814008AF81870B9F1000F1BD163E0F5
:104400009AF81910DAF8140001290FD1006810B9D0
:10441000DAF810004068D0F80890CAF814008AF85A
:104420001970B9F1000F06D14EE000BFD0F8089026
:10443000B9F1000F48D0012001214A460DF022FCBD
:10444000D9F830000068FCF719FC41EC100B4DF670
:10445000AC5201200D21C0F6020216468DED000B74
:104460000DF06EF909F10F02022001210DF00AFC96
:10447000D9F834000068FCF701FC41EC100B022075
:104480000D2132468DED000B0DF05AF909F11E0297
:10449000032001210DF0F6FBD9F838000068FCF785
:1044A000EDFB41EC100B03200D21324640F61816AF
:1044B000C2F200068DED000B0DF042F909F13C024D
:1044C000042001210DF0DEFB0DF06EF99AF81A00C0
:1044D000052807D004280BD003281AD1304605211F
:1044E00002E000BF304604214FF4167204E000BF22
:1044F000304605214FF4487200230097FFF738FA41
:104500009AF8000028B93046FFF7F2F901208AF83E
:104510000000D8F800102846012219F0C9F903AAB2
:1045200007CACAF824201028CAE9070136D1DAF8E8
:10453000140094ED030A8068B8EE400A8AED010A7F
:1045400060B3DAF82010CAB2662A4FEA11210BD004
:10455000642A23D1C9B2022910D001291ED1062014
:104560008AF81A0016E000BFC9B202290ED001294C
:1045700014D140F20160AAF819000FE0C06C0028C5
:1045800018BF804701208AF8190007E0C06C002896
:1045900018BF804701208AF8180000BF94ED030A75
:1045A0009AED011AB8EE400A30EE410AB4EE480A1C
:1045B000F1EE10FAA4BF02208AF81A00DAF8080017
:1045C0001F28FFF4ADAE0A2019F038F9CAF80870B8
:1045D000FEF7C2FCDAF80800A2E600BF0000704255
:1045E0002020506F6C617269730000000080BB4531
:1045F00041F22C60C2F200000078042804D04FF48D
:10460000FA7019F01BF900BF0DF0DAFF022019F063
:1046100015F9F9E745F22050C2F2000001F04CBE56
:1046200045F26070C2F2000001F046BE45F2C07073
:10463000C2F2000001F040BE45F68000C2F2000068
:1046400001F03ABE45F6E000C2F2000001F034BECF
:1046500045F28050C2F2000001F02EBE45F2A0608B
:10466000C2F2000001F028BE45F64010C2F2000080
:1046700001F022BE45F62000C2F2000001F01CBE8F
:1046800045F24060C2F2000001F016BE45F2C040A3
:10469000C2F2000001F010BE45F20070C2F200004C
:1046A00001F00ABE45F2E050C2F2000001F004BE83
:1046B00041F2040040F2D862CEF20000C2F20002E1
:1046C000016892ED061AB8EE411A21EE000A16E0D2
:1046D0000268521A01EE102AB8EE411AB4EE410AED
:1046E000F1EE10FAD8BF70470268521A01EE102A94
:1046F000B8EE411AB4EE410AF1EE10FA15DD026887
:10470000521A01EE102AB8EE411AB4EE410AF1EE47
:1047100010FA0ADD0268521A01EE102AB8EE411AA8
:10472000B4EE410AF1EE10FAD2DC704741F2040017
:1047300040F2D862CEF20000C2F20002016892EDAF
:10474000071AB8EE411A21EE000A16E00268521A62
:1047500001EE102AB8EE411AB4EE410AF1EE10FA59
:10476000D8BF70470268521A01EE102AB8EE411AFB
:10477000B4EE410AF1EE10FA15DD0268521A01EEAC
:10478000102AB8EE411AB4EE410AF1EE10FA0ADD31
:104790000268521A01EE102AB8EE411AB4EE410A2C
:1047A000F1EE10FAD2DC704740F2D860C2F200009D
:1047B0000830704781B041F20401CEF2000109686F
:1047C000009100990268891A00EE101A40F2D8612F
:1047D000C2F2000191ED061A0099B8EE400AB8EE57
:1047E000411A80EE010A016001B0704741F20401F4
:1047F000CEF2000109680068081A00EE100A40F2C3
:10480000D860C2F2000090ED061AB8EE400AB8EE89
:10481000411A80EE010A70472DE9F04782B041F25B
:104820000400CEF20000016840F2D86A0091C2F2A2
:10483000000A9AF80010A1B901218AF80010006856
:1048400001900198DAF82810884204D2DAF824009E
:104850000130CAF824000198CAF8280000208AF81C
:104860000000DAE90679DAE90880009C00254FF0BB
:10487000FF31E0FB0145204629463A460023CAE9BC
:104880000C45FBF79DFC0646A0FB070201FB072138
:10489000241A8D41204629464A460023CAF808605A
:1048A000FBF78EFC0746CAF80C0009FB00F0201A43
:1048B00065F1000142460023FBF782FC01EE107A0D
:1048C0009FED102A00EE106AB8EE411A81B2B8EEE0
:1048D000400A21EE021AAAF810004FF47A7031EE65
:1048E000000A01EE101A9FED082A06FB0070B8EED0
:1048F000411A21EE021A31EE000ACAF8140002B081
:10490000BDE8F0876F12833ABD3786352DE9F04751
:1049100082B041F20400CEF20000016840F2D86A91
:104920000091C2F2000A9AF80010A1B901218AF898
:104930000010006801900198DAF82810884204D22B
:10494000DAF824000130CAF824000198CAF82800D7
:1049500000208AF80000DAE90679DAE90880009C8C
:1049600000254FF0FF31E0FB0145204629463A463D
:104970000023CAE90C45FBF723FC0646A0FB07020F
:1049800001FB0721241A8D41204629464A4600236F
:10499000CAF80860FBF714FC0746CAF80C0009FBCC
:1049A00000F0201A65F1000142460023FBF708FCE5
:1049B0004FF47A7143F60952724306FB017379434F
:1049C00001EB8211AAF8100011FA80F00021CAF858
:1049D000143002B0BDE8F08710B54EF6FC5CCEF2A4
:1049E000000CDCF8002044F24023C0F20F0342F038
:1049F0008072584344F6D353CCF8002041F20002B1
:104A0000C1F26203CEF200024FF0000CA0FB033EA5
:104A1000C2F804C04DF683611368C4F21B31A0FBD9
:104A2000011443F00101116040F2D861C2F20001AB
:104A30004FEA9E1201F1180EA30C8EE80D10C1F87A
:104A400028C010BD2DE9F04782B041F20400CEF23B
:104A50000000016840F2D86A0091C2F2000A9AF898
:104A60000010A1B901218AF8001000680190019896
:104A7000DAF82810884204D2DAF824000130CAF8A3
:104A800024000198CAF8280000208AF80000DAE91A
:104A90000679DAE90880009C00254FF0FF31E0FB41
:104AA0000145204629463A460023CAE90C45FBF752
:104AB00087FB0646A0FB070201FB0721241A8D4154
:104AC000204629464A460023CAF80860FBF778FBCF
:104AD0000746CAF80C0009FB00F0201A65F1000136
:104AE00042460023FBF76CFB4FF47A7106FB017121
:104AF000AAF81000CAF8141002B0BDE8F087000050
:104B00007047000080B5012000F0F8F90120BDE8F1
:104B1000804001F0FFBD000080B54FF4804000F000
:104B2000EDF94FF4804001F0F5FD4FF40040BDE891
:104B3000804001F0EFBD000080B5042000F0DEF9F8
:104B40000420BDE8804001F0E5BD000080B51020E4
:104B500000F0D4F91020BDE8804001F0DBBD00007A
:104B600080B5202000F0CAF92020BDE8804001F087
:104B7000D1BD0000EFF3108072B616F087FC000084
:104B800080B545F23813C2F200035A7A002A1CBFDE
:104B9000012080BD93F809C08646002003F80C0070
:104BA0005A7A03EB8202C2F804E05A7A1A4410726D
:104BB00093F809C00CF101025A720CF130020A702C
:104BC00042F63A72A1F80120C87080BD90ED001A3B
:104BD000B5EE401AF1EE10FA15DDB7EE002AB4EE8C
:104BE000421AF1EE10FAA8BF704791ED013A32EE89
:104BF000412A22EE032A21EE000A30EE020A81ED5C
:104C0000000A81ED010A704780ED000A704700003C
:104C10000346920008461946FBF703BB44F644706E
:104C2000C2F200007047000010B54FF0000CC2F84F
:104C300000C009E0BEF1000F04BF002010BD00BF9E
:104C40000CF1010C8C455DD08C4559D0047844F0B2
:104C50002003202B14D0447844F02003202B25D0AF
:104C6000847844F02003202B2ED0C47844F0200315
:104C7000202B37D00430047844F02003202BEAD1D5
:104C80005FFA84FEBEF1200FD4D14478202C15D1D8
:104C90008478202C20D1C478202C2BD110F8044FFC
:104CA0005FFA84FEBEF1200FEFD0C3E701305FFA58
:104CB00084FEBEF1200FE8D0BCE700BF002C04BF8B
:104CC000002010BD0130BBE702305FFA84FEBEF168
:104CD000200FDAD0AEE700BF002C04BF002010BDCB
:104CE0000230ADE703305FFA84FEBEF1200FCCD076
:104CF000A0E700BF002C04BF002010BD03309FE7D9
:104D0000002010BD022144F02003DBB2202B1ED076
:104D10004B1E1360431813F8014C44F02004202C60
:104D20001AD01160445C44F02004202C14D04C1C98
:104D300014605C7844F02004202C0DD08C1C14608E
:104D40009C78043144F02003DBB2202BE0D10239FF
:104D5000002908BF084610BD0121002908BF0846E8
:104D600010BD00002DE9F04F81B040F67C6AC2F220
:104D7000000A9046DAF800208946834662B1156839
:104D8000AB68484641465A469847002800F0848060
:104D900001B0BDE8F08F00BF40F20C46C2F2000641
:104DA000CAF8006005E000BF7668002ECAF800600F
:104DB00056D035682C682046FBF77BFA07465846E4
:104DC00021463A46FBF7B4FA0028EDD11BF807005C
:104DD00040F020002028E7D195F90C000028CFD41E
:104DE00000215B4600221F78202F07D11AE000BF68
:104DF0003944012204331F78202F13D0E7B3002257
:104E000001275E78202E17D0B6B3002201279E78A6
:104E1000202E17D086B300220127DE78202E17D14E
:104E2000E6E700BF012A4FF001024FF0000718BF6C
:104E300001315E78202EE7D13944012200279E7887
:104E4000202EE7D1394401220027DE78202ECFD052
:104E500096B1002204331F78202FCFD1E2E700BFA4
:104E60004EF65551C0F6020148464246FBF70BFA92
:104E7000002001B0BDE8F08F012A08BF0139C9B296
:104E8000C0B281423FF47CAF4EF6FD41C0F6020154
:104E900048464246FBF7F7F90020CAF8000001B087
:104EA000BDE8F08FB0B5A8B10446082019F0A6FE01
:104EB000D0B105461AF0D6FB40F20C112C60C2F2BC
:104EC00000010A680020686055600D601AF0EEFB72
:104ED0000120B0BD4FF0500080F31188BFF36F8FF9
:104EE000BFF34F8FFEE700BF4FF0500080F31188F3
:104EF000BFF36F8FBFF34F8FFEE70000B0B5411EC9
:104F00001F2923D80FF20400DFE801F0104C4C4EAB
:104F10004C4C4C4C4C4C4C4C4C4C4C644C4C4C4CB9
:104F20004C4C4C4C4C4C4C4C4C4C4C3640F21804B9
:104F3000C2F200042569FFF737FCC2682868A98817
:104F4000AA6001F0C7FC21693CE000BFB0F5004F4A
:104F500056D0B0F5804F25D140F21804C2F20004BB
:104F6000A568FFF721FCC2682868A988AA6001F03B
:104F7000B1FCA16852E000BF40F21804C2F2000484
:104F80006568FFF711FCC2682868A988AA6001F06B
:104F9000A1FC0128287405D16068BDE8B04008F084
:104FA00093B800BFB0BD00BF40F21804C2F20004C5
:104FB0006569FFF7F9FBC2682868A988AA6001F053
:104FC00089FC6169024608462A74BDE8B04008F0D1
:104FD00071BF00BF40F21804C2F200042568FFF759
:104FE000E3FBC2682868A988AA6001F073FC012865
:104FF000287418BFB0BD2068BDE8B04008F064B8A0
:1050000040F21804C2F20004E568FFF7CDFBC26865
:105010002868A988AA6001F05DFCE168024608469C
:105020002A74BDE8B04008F029BF000010B504465E
:105030000068A188002201F05BFCFFF7B5FBC268A5
:105040002068A188A26001F045FC207410BD00001A
:1050500010B504460068A188012201F049FCFFF761
:10506000A3FBC2682068A188A26001F033FC207411
:1050700010BD0000B0B540F68065C2F20005287D85
:10508000012818BFB0BD05F59A70FFF793FB95EDA9
:10509000011A05F19C0485ED4C0A2046B0EE410A48
:1050A0000DF0BEF895ED020A20460DF0B5F805F1B9
:1050B000F00120460CF00CFF20460DF073F805F1CE
:1050C000180420460DF0ACF895ED030A20460DF0CB
:1050D000A3F805F16C0120460CF0FAFE20460DF015
:1050E00061F841F6B000C2F20000BDE8B0400AF03D
:1050F00073BD000040F68060C2F2000070470000FF
:10510000B0B544F6CC1540F68064C0F60205C2F294
:1051100000040020022195EC070AD5ED0A3A95ED2E
:105120000B4AD5ED0F4A95ED105A2075606021703D
:10513000C4E94A00C4F83001C4F8340104F1F000B5
:1051400000210DF037F805F1500090EC070AD5ED7D
:105150001E3A95ED1F4AD5ED234A95ED245A04F1E8
:105160006C000021BDE8B0400DF024B880B540F6D9
:105170008060C2F2000000F59670FFF737FB44F63E
:105180002810C0F6020090ED001A0020B4EE410A8B
:10519000F1EE10FAC8BF012080BD0000B0B52DEDC2
:1051A000028B40F68065C2F2000505F19C042046A2
:1051B000B0EE408A0CF0FAFF40F2D400C2F20000D8
:1051C00090ED001A95ED492A31EE021AB4EE410A2B
:1051D000F1EE10FA0CDDB5EE408AF1EE10FA07DDC3
:1051E0009FED158AB0EE480ABDEC028BB0BD00BF42
:1051F00020460CF0DBFF40F2D000C2F2000090ED40
:10520000001A95ED492AB5EE408A31EE021AF1EE08
:1052100010FAB0EE483AB4EE410A9FED072AB8BF43
:10522000B0EE423AF1EE10FAB8BFB0EE438AB0EEFB
:10523000480ABDEC028BB0BD0000000010B52DED9A
:10524000028BB0EE408A15F011F9044607F0E8FC35
:1052500094F8210101281BD041F6B000C2F20000F1
:1052600090ED070A90ED082A40F2EC00C2F200002F
:1052700090ED001A32EE400AB4EE410AF1EE10FA57
:105280000CDDB5EE408AF1EE10FA07DD9FED108AD5
:10529000B0EE480ABDEC028B10BD00BFB1EE411A62
:1052A000B5EE408AF1EE10FAB0EE483AB4EE410A9B
:1052B0009FED072AB8BFB0EE423AF1EE10FAB8BF40
:1052C000B0EE438AB0EE480ABDEC028B10BD00BFC1
:1052D0000000000080B540F68060C2F20000007D52
:1052E000012807D041F6B0009FED060AC2F2000087
:1052F0000AF072FC40F60800C2F20000BDE88040EF
:105300000AF080BA0000000040F68061C2F200019D
:105310000A78002A08BF10460875704770B5C8B1F2
:1053200040F68065C2F2000504462878A04208BF16
:1053300070BD05F19C000CF02DFF05F118000CF07C
:1053400029FF022C18D0012C3AD144F62C16C0F6B5
:10535000020615E040F68064C2F2000400202070CE
:10536000207504F19C000CF015FF04F11800BDE855
:1053700070400CF00FBF00BF44F6CC16C0F602061A
:1053800096EC070AD6ED0A3A96ED0B4AD6ED0F4A8F
:1053900096ED105A05F1F00000210CF00BFF06F11C
:1053A000500090EC070AD6ED1E3A96ED1F4AD6ED56
:1053B000234A96ED245A05F16C0000210CF0FAFE08
:1053C0002C7070BD40F68060C2F2000080ED030AD0
:1053D0007047000010B540F68064C2F2000404F586
:1053E000967084ED020AFFF7E5F984ED4A0A10BDD4
:1053F00040F68060C2F2000090ED011A31EE000A22
:1054000080ED010A70470000FFF774FE054607F0C3
:1054100007FC9FED199A9FED198A41F22C6604460C
:1054200005F59675C2F200060BE000BFFFF722FEFD
:10543000FFF750FFB0EE480AFFF778F9022018F0A6
:10544000FDF9307804280BD194ED050AB1EE400A3D
:10545000FFF7B8FF94ED1D0AB1EE400AFFF7BAFF5F
:105460002846FFF7C3F9B4EE490AF1EE10FADDDD84
:105470000020FFF749FFD9E79A99193F9A99993E79
:1054800070B581B00022009290F83C20012A03D12F
:105490000221084601B070BD0E6801220A2E80F874
:1054A0003C2009D3B2B25200D0F800E012FA86F2E2
:1054B0001E3A0EF10C0305E0D0F800E006EB4602C0
:1054C0000EF110034FF0070C1D680CFA02F4A5430F
:1054D0001D608D681C6805FA02F222431A60496853
:1054E00006290FD801EB81014A1F71461F2351F88D
:1054F000345F934025EA03030B60B3B203FA02F270
:1055000014E000BF01EB81030C29B2B204D871464C
:1055100051F8304F233B03E0714651F82C4F413B8B
:105520001F259D4024EA05059A400D600B6842F254
:10553000043CC4F2010C1A43ACF541739E450A6069
:105540003BD1122E06D1DCF8001041F48001CCF8DA
:10555000001032E026F0010110292ED1DCF80010F5
:10556000102E41F40001CCF8001026D140F2143185
:10557000C2F2000109684DF68362C4F21B32A1FB3E
:105580000212910C01EB8101490000910099A1B137
:10559000009901390091009979B100990139009180
:1055A000009951B1009901390091009929B10099F0
:1055B0000139009100990029EAD1002180F83C10BE
:1055C000084601B070BD0000704700007047000041
:1055D00070470000002804BF0120704710B5044642
:1055E000006C00283ED0206CC00645D4206C41F2EF
:1055F00002118843023042F204312064C4F20101F6
:10560000086820F4403008600A6894E809101A43DA
:10561000D4F810E00A604168012321F480714160F0
:105620004168C0F6007341EA0E214160416821F0F3
:1056300040714160416841EA0C014160816821F498
:1056400000618160E168826811438160A16A8268BB
:10565000994222F070628260826813D122F0405138
:1056600019E000BF204600F065F80020606484F86F
:105670003C00206CC006B9D50120002184F83C1004
:1056800010BD00BF11438160816821F040518160ED
:10569000E16A826811438160816821F002018160C2
:1056A0008168227E94F8203041EA4201816041689D
:1056B00083B141F40061416041684EF2000221F47F
:1056C00060414160616ACFF6FF72436802EB41318D
:1056D000194301E021F400614160C16A40F2000C0D
:1056E00021F47001C162E2696169CFF6F07CC36A9E
:1056F0000CEB02521A43C262826822F4007282608A
:1057000094F83020836843EA42228260826822F45F
:1057100080628260826842EA812181600020606448
:10572000216C012262F301012164002184F83C1004
:1057300010BD0000B0B582B00446006842F200011E
:10574000C4F20101884201D002B0B0BD002043F68E
:1057500044010190C4F202010A6845F2C04542F4D6
:1057600080720A600968C2F2000501F4807101913B
:10577000019946F27041C4F202014FF480624FF485
:105780008053C5E9001005F110014FF4804C4FF42F
:10579000807E81E80C5005F12003C5E90200042158
:1057A000032207C3C5E90B00284600F065FE002868
:1057B00018BFFFF7DFF9A563AC6302B0B0BD00000E
:1057C000B0B582B004460020019094F83C00012856
:1057D00002D1022002B0B0BD94460A4601202168E1
:1057E00084F83C008868C00729D188684DF6836535
:1057F00040F00100886040F21430C2F200000068FE
:10580000C4F21B35A0FB0505A80C00EB400001907D
:105810000198A0B1019801380190019878B10198E0
:1058200001380190019850B1019801380190019818
:1058300028B101980138019001980028EAD18868C0
:10584000C00503D5886820F4807088608D68206C5E
:10585000ED0709D140F010002064606C40F00100B9
:105860006064002002B0B0BD40F20175A84300F5AD
:10587000807020644868400504D5206C012565F3DC
:105880000D302064256C0020ED044FF0000544BF6E
:10589000656C25F00605656484F83C00A06B41F258
:1058A000315541F2B553C0F60005C0F60003C0E91A
:1058B0000F5341F2A153C0F60003C3646FF02203FB
:1058C0000B604B6842F2080543F080634B608B68C5
:1058D000C4F2010543F480738B604C31634600F0E1
:1058E000B3FED5F8FC122068C9060FD0A5F1080157
:1058F0008842B6D1286810F0405FB2D1286840F0E5
:1059000080402860002002B0B0BD00BF42F200011C
:10591000C4F20101884217D042F20021C4F2010111
:1059200088420DD042F20011C4F20101884298D1A0
:10593000D5F8FC12C90607D005F5FC71884290D154
:10594000D5F8FC12C9068CD4816811F0405F7FF451
:1059500088AF816841F080418160002002B0B0BD15
:1059600090F82020013A012A08D8006800F11402BA
:105970000020136819431160704700BF00F1240232
:1059800001204FF480211368194311607047000013
:1059900010B590F820E0D0F800C0AEF1010EBEF1D5
:1059A000010FDCF808E011D81EF0E05F18D0CEF34C
:1059B000016EBEF1030F1DD100F1240101204FF44F
:1059C00000020B681A430A6010BD00BF00F12401F9
:1059D00001204FF480220B681A430A6010BD00BFFB
:1059E00000F1240101204FF400120B681A430A60F1
:1059F00010BD00BF012000FA0EF01860886828B1C1
:105A00004B68CC6844EAC303034303E00868CB68EF
:105A100043EA40530CEB0E10C0F880310B69C0F81C
:105A20008431097D012905D100F5C2710B6843F469
:105A300080730B605168C0F88C11126800F5C0715A
:105A4000C0F88821002001220B681A430A6010BDAB
:105A5000B0B590F82020013A012A2FD846F2006014
:105A6000C4F20000026842F001020260026822F4FF
:105A70007C520260D1F814E0CC694A6A0368012CB8
:105A800043EA022202600EF01F024FF0010303FA04
:105A900002F2C3696FEA020C23EA0203C36113D066
:105AA0002CBBC36803EA0C03C360CB688C8844EA50
:105AB000034300EBCE0423640B4611E0416A41F43A
:105AC000802141620120B0BDC3681343C3600B68ED
:105AD0008C8844EA034300EBCE04236401F10C03F9
